{
  "contractName": "CardGame",
  "abi": [
    {
      "inputs": [],
      "payable": false,
      "stateMutability": "nonpayable",
      "type": "constructor"
    },
    {
      "constant": false,
      "inputs": [
        {
          "name": "id",
          "type": "uint256"
        },
        {
          "name": "quantity",
          "type": "uint256"
        }
      ],
      "name": "PrintCards",
      "outputs": [],
      "payable": false,
      "stateMutability": "nonpayable",
      "type": "function"
    },
    {
      "constant": false,
      "inputs": [
        {
          "name": "to",
          "type": "address"
        },
        {
          "name": "id",
          "type": "uint256"
        }
      ],
      "name": "TransferSingle",
      "outputs": [],
      "payable": false,
      "stateMutability": "nonpayable",
      "type": "function"
    },
    {
      "constant": true,
      "inputs": [],
      "name": "numberOfCards",
      "outputs": [
        {
          "name": "",
          "type": "uint256"
        }
      ],
      "payable": false,
      "stateMutability": "view",
      "type": "function"
    },
    {
      "constant": false,
      "inputs": [
        {
          "name": "_name",
          "type": "string"
        },
        {
          "name": "_power",
          "type": "uint256"
        },
        {
          "name": "_health",
          "type": "uint256"
        },
        {
          "name": "_meta",
          "type": "string"
        }
      ],
      "name": "CreateCard",
      "outputs": [],
      "payable": false,
      "stateMutability": "nonpayable",
      "type": "function"
    },
    {
      "constant": true,
      "inputs": [
        {
          "name": "id",
          "type": "uint256"
        }
      ],
      "name": "getCardById",
      "outputs": [
        {
          "name": "",
          "type": "string"
        },
        {
          "name": "",
          "type": "uint256"
        },
        {
          "name": "",
          "type": "uint256"
        },
        {
          "name": "",
          "type": "string"
        }
      ],
      "payable": false,
      "stateMutability": "view",
      "type": "function"
    },
    {
      "constant": true,
      "inputs": [
        {
          "name": "name",
          "type": "string"
        }
      ],
      "name": "getCardByName",
      "outputs": [
        {
          "name": "",
          "type": "string"
        },
        {
          "name": "",
          "type": "uint256"
        },
        {
          "name": "",
          "type": "uint256"
        },
        {
          "name": "",
          "type": "string"
        }
      ],
      "payable": false,
      "stateMutability": "view",
      "type": "function"
    },
    {
      "constant": true,
      "inputs": [],
      "name": "getCardIds",
      "outputs": [
        {
          "name": "",
          "type": "uint256[]"
        }
      ],
      "payable": false,
      "stateMutability": "view",
      "type": "function"
    }
  ],
  "bytecode": "0x60806040526001805534801561001457600080fd5b50336000806101000a81548173ffffffffffffffffffffffffffffffffffffffff021916908373ffffffffffffffffffffffffffffffffffffffff160217905550610bf6806100646000396000f300608060405260043610610083576000357c0100000000000000000000000000000000000000000000000000000000900463ffffffff16806314c264de1461008857806325a6bd10146101e457806348dcd10c1461021b57806381efd708146102875780639077fe52146102b2578063cc334a2f146103d2578063f9bacb5b1461041f575b600080fd5b34801561009457600080fd5b506100ef600480360381019080803590602001908201803590602001908080601f01602080910402602001604051908101604052809392919081815260200183838082843782019150505050505091929192905050506104e2565b604051808060200185815260200184815260200180602001838103835287818151815260200191508051906020019080838360005b8381101561013f578082015181840152602081019050610124565b50505050905090810190601f16801561016c5780820380516001836020036101000a031916815260200191505b50838103825284818151815260200191508051906020019080838360005b838110156101a557808201518184015260208101905061018a565b50505050905090810190601f1680156101d25780820380516001836020036101000a031916815260200191505b50965050505050505060405180910390f35b3480156101f057600080fd5b506102196004803603810190808035906020019092919080359060200190929190505050610572565b005b34801561022757600080fd5b50610230610653565b6040518080602001828103825283818151815260200191508051906020019060200280838360005b83811015610273578082015181840152602081019050610258565b505050509050019250505060405180910390f35b34801561029357600080fd5b5061029c6106ab565b6040518082815260200191505060405180910390f35b3480156102be57600080fd5b506102dd600480360381019080803590602001909291905050506106b8565b604051808060200185815260200184815260200180602001838103835287818151815260200191508051906020019080838360005b8381101561032d578082015181840152602081019050610312565b50505050905090810190601f16801561035a5780820380516001836020036101000a031916815260200191505b50838103825284818151815260200191508051906020019080838360005b83811015610393578082015181840152602081019050610378565b50505050905090810190601f1680156103c05780820380516001836020036101000a031916815260200191505b50965050505050505060405180910390f35b3480156103de57600080fd5b5061041d600480360381019080803573ffffffffffffffffffffffffffffffffffffffff16906020019092919080359060200190929190505050610860565b005b34801561042b57600080fd5b506104e0600480360381019080803590602001908201803590602001908080601f01602080910402602001604051908101604052809392919081815260200183838082843782019150505050505091929192908035906020019092919080359060200190929190803590602001908201803590602001908080601f016020809104026020016040519081016040528093929190818152602001838380828437820191505050505050919291929050505061098a565b005b6060600080606060006004866040518082805190602001908083835b60208310151561052357805182526020820191506020810190506020830392506104fe565b6001836020036101000a0380198251168184511680821785525050505050509050019150509081526020016040518091039020549050610562816106b8565b9450945094509450509193509193565b6000809054906101000a900473ffffffffffffffffffffffffffffffffffffffff1673ffffffffffffffffffffffffffffffffffffffff163373ffffffffffffffffffffffffffffffffffffffff161415156105cd57600080fd5b80600560008060009054906101000a900473ffffffffffffffffffffffffffffffffffffffff1673ffffffffffffffffffffffffffffffffffffffff1673ffffffffffffffffffffffffffffffffffffffff1681526020019081526020016000206000016000848152602001908152602001600020600082825401925050819055505050565b606060038054806020026020016040519081016040528092919081815260200182805480156106a157602002820191906000526020600020905b81548152602001906001019080831161068d575b5050505050905090565b6000600380549050905090565b60606000806060600260008681526020019081526020016000206000016002600087815260200190815260200160002060010154600260008881526020019081526020016000206002015460026000898152602001908152602001600020600301838054600181600116156101000203166002900480601f0160208091040260200160405190810160405280929190818152602001828054600181600116156101000203166002900480156107ae5780601f10610783576101008083540402835291602001916107ae565b820191906000526020600020905b81548152906001019060200180831161079157829003601f168201915b50505050509350808054600181600116156101000203166002900480601f01602080910402602001604051908101604052809291908181526020018280546001816001161561010002031660029004801561084a5780601f1061081f5761010080835404028352916020019161084a565b820191906000526020600020905b81548152906001019060200180831161082d57829003601f168201915b5050505050905093509350935093509193509193565b6001600560003373ffffffffffffffffffffffffffffffffffffffff1673ffffffffffffffffffffffffffffffffffffffff1681526020019081526020016000206000016000838152602001908152602001600020541115156108c257600080fd5b6001600560008473ffffffffffffffffffffffffffffffffffffffff1673ffffffffffffffffffffffffffffffffffffffff1681526020019081526020016000206000016000838152602001908152602001600020600082825401925050819055506001600560003373ffffffffffffffffffffffffffffffffffffffff1673ffffffffffffffffffffffffffffffffffffffff1681526020019081526020016000206000016000838152602001908152602001600020600082825403925050819055505050565b6000809054906101000a900473ffffffffffffffffffffffffffffffffffffffff1673ffffffffffffffffffffffffffffffffffffffff163373ffffffffffffffffffffffffffffffffffffffff161415156109e557600080fd5b608060405190810160405280858152602001848152602001838152602001828152506002600060015481526020019081526020016000206000820151816000019080519060200190610a38929190610b25565b5060208201518160010155604082015181600201556060820151816003019080519060200190610a69929190610b25565b50905050600360015490806001815401808255809150509060018203906000526020600020016000909192909190915055506001546004856040518082805190602001908083835b602083101515610ad65780518252602082019150602081019050602083039250610ab1565b6001836020036101000a03801982511681845116808217855250505050505090500191505090815260200160405180910390208190555060016000815480929190600101919050555050505050565b828054600181600116156101000203166002900490600052602060002090601f016020900481019282601f10610b6657805160ff1916838001178555610b94565b82800160010185558215610b94579182015b82811115610b93578251825591602001919060010190610b78565b5b509050610ba19190610ba5565b5090565b610bc791905b80821115610bc3576000816000905550600101610bab565b5090565b905600a165627a7a7230582098492921bf5fe19af4b6c470933e38f38d1fbc53949c4c323f765f4114b3114c0029",
  "source": "pragma solidity ^0.4.19;\n\n/**\n * The Owned contract does this and that....\n */\ncontract Owned {\n\t\n\taddress owner;\n\n\tconstructor() public {\n\t\t\n\t\towner = msg.sender;\n\n\t}\n}\n\n/**\n * CardGame contractd\n */\ncontract CardGame is Owned {\n\t\n\tuint next_id = 1; // used to assign unique id to each card\n\n\tstruct Card{\n\n\t\tstring name; // name shown on the card\n\t\tuint power; // power\n\t\tuint health; // health\n\t\tstring meta; // a json format string - used to hold complex card definitions and js readable\n\t}\n\n\n\t/**\n\t*  Define OwnerOnly modifier to restrict function calls to owner\n\t*/\n\tmodifier OwnerOnly() { \n\t\trequire (msg.sender == owner); \n\t\t_; \n\t}\n\n\n\t/**\n\t* \tDefine array to store all card definitions\n\t*/\n\tmapping(uint => Card) cards; // mapping from card id to card definition\n\tuint[] ids; // list of all card ids\n\tmapping(string => uint) names; // mapping from card name to id\n\n\n\t/**\n\t*\tCollection of cards struct\n\t*/ \n\tstruct Collection{\n\t\tmapping(uint => uint) collection;\n\t}\n\n\n\t/**\n\t* \tWho owns what\n\t*/\n\tmapping(address => Collection) holdings;\n\n\n\t/**\n\t*\tPrint cards and give them to the owner\n\t*/\n\tfunction PrintCards(uint id,uint quantity) public OwnerOnly{\n\t\tholdings[owner].collection[id] += quantity;\n\t}\n\n\t/**\n\t* \tTransfer single card\n\t*/\n\tfunction TransferSingle(address to,uint id) public {\n\t\trequire(holdings[msg.sender].collection[id] > 1);\n\t\tholdings[to].collection[id] += 1;\n\t\tholdings[msg.sender].collection[id] -=1;\n\t}\n\n\n\t/**\n\t* \tGet the number of defined cards in existance\n\t*/\n\tfunction numberOfCards() public view returns (uint){\n\t\treturn ids.length;\n\t}\n\n\n\t/**\n\t* \tContract constructor\n\t*/\n\tconstructor() public {\n\n\t}\n\n\n\t/**\n\t*\tCreate card\n\t*/\n\tfunction CreateCard(\n\t\t\tstring _name,\n\t\t\tuint _power,\n\t\t\tuint _health,\n\t\t\tstring _meta) public OwnerOnly {\n\n\t\tcards[next_id] = Card(_name,_power,_health,_meta);\n\t\tids.push(next_id);\n\t\tnames[_name] = next_id;\n\t\tnext_id++;\n\n\t}\n\n\n\t/**\n\t* \tGet card by id\n\t*/\n\tfunction getCardById(uint id) public view returns (string,uint,uint,string) {\n\t\treturn (cards[id].name,cards[id].power,cards[id].health,cards[id].meta);\n\t}\n\n\t/**\n\t*\tGet card by name\n\t*/\n\tfunction getCardByName (string name) public view returns (string,uint,uint,string) {\n\t\tuint id = names[name];\n\t\treturn getCardById(id);\n\t}\n\t\n\n\t/**\n\t*\tGet names\n\t*/\n\tfunction getCardIds() public view returns (uint[]){\n\t\treturn ids;\n\t}\n\n\n\t/**\n\t*  Delete card\n\t*/\n\n}\n\n",
  "sourcePath": "/home/andy/Desktop/king_of_ashes/contracts/Cards.sol",
  "compiler": {
    "name": "solc",
    "version": "0.4.23+commit.124ca40d.Emscripten.clang"
  },
  "schemaVersion": "2.0.0",
  "updatedAt": "2018-04-26T08:41:29.542Z"
}