{
  "contractName": "CardGame",
  "abi": [
    {
      "inputs": [],
      "payable": false,
      "stateMutability": "nonpayable",
      "type": "constructor"
    },
    {
      "constant": false,
      "inputs": [
        {
          "name": "name",
          "type": "string"
        },
        {
          "name": "quantity",
          "type": "uint256"
        }
      ],
      "name": "PrintCards",
      "outputs": [],
      "payable": false,
      "stateMutability": "nonpayable",
      "type": "function"
    },
    {
      "constant": false,
      "inputs": [
        {
          "name": "to",
          "type": "address"
        },
        {
          "name": "id",
          "type": "uint256"
        }
      ],
      "name": "TransferSingle",
      "outputs": [],
      "payable": false,
      "stateMutability": "nonpayable",
      "type": "function"
    },
    {
      "constant": true,
      "inputs": [],
      "name": "numberOfCards",
      "outputs": [
        {
          "name": "",
          "type": "uint256"
        }
      ],
      "payable": false,
      "stateMutability": "view",
      "type": "function"
    },
    {
      "constant": false,
      "inputs": [
        {
          "name": "_name",
          "type": "string"
        },
        {
          "name": "_power",
          "type": "uint256"
        },
        {
          "name": "_health",
          "type": "uint256"
        },
        {
          "name": "_meta",
          "type": "string"
        },
        {
          "name": "_ipfs",
          "type": "string"
        }
      ],
      "name": "CreateCard",
      "outputs": [],
      "payable": false,
      "stateMutability": "nonpayable",
      "type": "function"
    },
    {
      "constant": true,
      "inputs": [
        {
          "name": "id",
          "type": "uint256"
        }
      ],
      "name": "getCardById",
      "outputs": [
        {
          "name": "",
          "type": "string"
        },
        {
          "name": "",
          "type": "uint256"
        },
        {
          "name": "",
          "type": "uint256"
        },
        {
          "name": "",
          "type": "string"
        },
        {
          "name": "",
          "type": "string"
        }
      ],
      "payable": false,
      "stateMutability": "view",
      "type": "function"
    },
    {
      "constant": true,
      "inputs": [
        {
          "name": "name",
          "type": "string"
        }
      ],
      "name": "getCardByName",
      "outputs": [
        {
          "name": "",
          "type": "string"
        },
        {
          "name": "",
          "type": "uint256"
        },
        {
          "name": "",
          "type": "uint256"
        },
        {
          "name": "",
          "type": "string"
        },
        {
          "name": "",
          "type": "string"
        }
      ],
      "payable": false,
      "stateMutability": "view",
      "type": "function"
    },
    {
      "constant": true,
      "inputs": [],
      "name": "getCardIds",
      "outputs": [
        {
          "name": "",
          "type": "uint256[]"
        }
      ],
      "payable": false,
      "stateMutability": "view",
      "type": "function"
    },
    {
      "constant": true,
      "inputs": [
        {
          "name": "user",
          "type": "address"
        }
      ],
      "name": "getHoldings",
      "outputs": [
        {
          "name": "",
          "type": "uint256[]"
        }
      ],
      "payable": false,
      "stateMutability": "view",
      "type": "function"
    },
    {
      "constant": true,
      "inputs": [
        {
          "name": "user",
          "type": "address"
        },
        {
          "name": "id",
          "type": "uint256"
        }
      ],
      "name": "getHoldingForId",
      "outputs": [
        {
          "name": "",
          "type": "uint256"
        }
      ],
      "payable": false,
      "stateMutability": "view",
      "type": "function"
    }
  ],
  "bytecode": "0x60806040526001805534801561001457600080fd5b50336000806101000a81548173ffffffffffffffffffffffffffffffffffffffff021916908373ffffffffffffffffffffffffffffffffffffffff1602179055506110a8806100646000396000f300608060405260043610610099576000357c0100000000000000000000000000000000000000000000000000000000900463ffffffff16806314c264de1461009e5780631be52dc41461026657806348dcd10c146102fe5780636727f5781461036a57806381efd708146103dd5780639077fe5214610408578063c952a11d14610594578063cc334a2f146105f5578063fe716c3f14610642575b600080fd5b3480156100aa57600080fd5b50610105600480360381019080803590602001908201803590602001908080601f016020809104026020016040519081016040528093929190818152602001838380828437820191505050505050919291929050505061074b565b60405180806020018681526020018581526020018060200180602001848103845289818151815260200191508051906020019080838360005b8381101561015957808201518184015260208101905061013e565b50505050905090810190601f1680156101865780820380516001836020036101000a031916815260200191505b50848103835286818151815260200191508051906020019080838360005b838110156101bf5780820151818401526020810190506101a4565b50505050905090810190601f1680156101ec5780820380516001836020036101000a031916815260200191505b50848103825285818151815260200191508051906020019080838360005b8381101561022557808201518184015260208101905061020a565b50505050905090810190601f1680156102525780820380516001836020036101000a031916815260200191505b509850505050505050505060405180910390f35b34801561027257600080fd5b506102a7600480360381019080803573ffffffffffffffffffffffffffffffffffffffff1690602001909291905050506107e0565b6040518080602001828103825283818151815260200191508051906020019060200280838360005b838110156102ea5780820151818401526020810190506102cf565b505050509050019250505060405180910390f35b34801561030a57600080fd5b5061031361087a565b6040518080602001828103825283818151815260200191508051906020019060200280838360005b8381101561035657808201518184015260208101905061033b565b505050509050019250505060405180910390f35b34801561037657600080fd5b506103db600480360381019080803590602001908201803590602001908080601f0160208091040260200160405190810160405280939291908181526020018383808284378201915050505050509192919290803590602001909291905050506108d2565b005b3480156103e957600080fd5b506103f2610a24565b6040518082815260200191505060405180910390f35b34801561041457600080fd5b5061043360048036038101908080359060200190929190505050610a31565b60405180806020018681526020018581526020018060200180602001848103845289818151815260200191508051906020019080838360005b8381101561048757808201518184015260208101905061046c565b50505050905090810190601f1680156104b45780820380516001836020036101000a031916815260200191505b50848103835286818151815260200191508051906020019080838360005b838110156104ed5780820151818401526020810190506104d2565b50505050905090810190601f16801561051a5780820380516001836020036101000a031916815260200191505b50848103825285818151815260200191508051906020019080838360005b83811015610553578082015181840152602081019050610538565b50505050905090810190601f1680156105805780820380516001836020036101000a031916815260200191505b509850505050505050505060405180910390f35b3480156105a057600080fd5b506105df600480360381019080803573ffffffffffffffffffffffffffffffffffffffff16906020019092919080359060200190929190505050610c90565b6040518082815260200191505060405180910390f35b34801561060157600080fd5b50610640600480360381019080803573ffffffffffffffffffffffffffffffffffffffff16906020019092919080359060200190929190505050610cee565b005b34801561064e57600080fd5b50610749600480360381019080803590602001908201803590602001908080601f01602080910402602001604051908101604052809392919081815260200183838082843782019150505050505091929192908035906020019092919080359060200190929190803590602001908201803590602001908080601f0160208091040260200160405190810160405280939291908181526020018383808284378201915050505050509192919290803590602001908201803590602001908080601f0160208091040260200160405190810160405280939291908181526020018383808284378201915050505050509192919290505050610e18565b005b606060008060608060006004876040518082805190602001908083835b60208310151561078d5780518252602082019150602081019050602083039250610768565b6001836020036101000a03801982511681845116808217855250505050505090500191505090815260200160405180910390205490506107cc81610a31565b955095509550955095505091939590929450565b6060600560008373ffffffffffffffffffffffffffffffffffffffff1673ffffffffffffffffffffffffffffffffffffffff16815260200190815260200160002060010180548060200260200160405190810160405280929190818152602001828054801561086e57602002820191906000526020600020905b81548152602001906001019080831161085a575b50505050509050919050565b606060038054806020026020016040519081016040528092919081815260200182805480156108c857602002820191906000526020600020905b8154815260200190600101908083116108b4575b5050505050905090565b60008060009054906101000a900473ffffffffffffffffffffffffffffffffffffffff1673ffffffffffffffffffffffffffffffffffffffff163373ffffffffffffffffffffffffffffffffffffffff1614151561092f57600080fd5b6004836040518082805190602001908083835b6020831015156109675780518252602082019150602081019050602083039250610942565b6001836020036101000a038019825116818451168082178552505050505050905001915050908152602001604051809103902054905081600560008060009054906101000a900473ffffffffffffffffffffffffffffffffffffffff1673ffffffffffffffffffffffffffffffffffffffff1673ffffffffffffffffffffffffffffffffffffffff168152602001908152602001600020600001600083815260200190815260200160002060008282540192505081905550505050565b6000600380549050905090565b60606000806060806002600087815260200190815260200160002060000160026000888152602001908152602001600020600101546002600089815260200190815260200160002060020154600260008a8152602001908152602001600020600301600260008b8152602001908152602001600020600401848054600181600116156101000203166002900480601f016020809104026020016040519081016040528092919081815260200182805460018160011615610100020316600290048015610b3e5780601f10610b1357610100808354040283529160200191610b3e565b820191906000526020600020905b815481529060010190602001808311610b2157829003601f168201915b50505050509450818054600181600116156101000203166002900480601f016020809104026020016040519081016040528092919081815260200182805460018160011615610100020316600290048015610bda5780601f10610baf57610100808354040283529160200191610bda565b820191906000526020600020905b815481529060010190602001808311610bbd57829003601f168201915b50505050509150808054600181600116156101000203166002900480601f016020809104026020016040519081016040528092919081815260200182805460018160011615610100020316600290048015610c765780601f10610c4b57610100808354040283529160200191610c76565b820191906000526020600020905b815481529060010190602001808311610c5957829003601f168201915b505050505090509450945094509450945091939590929450565b6000600560008473ffffffffffffffffffffffffffffffffffffffff1673ffffffffffffffffffffffffffffffffffffffff168152602001908152602001600020600001600083815260200190815260200160002054905092915050565b6001600560003373ffffffffffffffffffffffffffffffffffffffff1673ffffffffffffffffffffffffffffffffffffffff168152602001908152602001600020600001600083815260200190815260200160002054111515610d5057600080fd5b6001600560008473ffffffffffffffffffffffffffffffffffffffff1673ffffffffffffffffffffffffffffffffffffffff1681526020019081526020016000206000016000838152602001908152602001600020600082825401925050819055506001600560003373ffffffffffffffffffffffffffffffffffffffff1673ffffffffffffffffffffffffffffffffffffffff1681526020019081526020016000206000016000838152602001908152602001600020600082825403925050819055505050565b6000809054906101000a900473ffffffffffffffffffffffffffffffffffffffff1673ffffffffffffffffffffffffffffffffffffffff163373ffffffffffffffffffffffffffffffffffffffff16141515610e7357600080fd5b60a060405190810160405280868152602001858152602001848152602001838152602001828152506002600060015481526020019081526020016000206000820151816000019080519060200190610ecc929190610fd7565b5060208201518160010155604082015181600201556060820151816003019080519060200190610efd929190610fd7565b506080820151816004019080519060200190610f1a929190610fd7565b50905050600360015490806001815401808255809150509060018203906000526020600020016000909192909190915055506001546004866040518082805190602001908083835b602083101515610f875780518252602082019150602081019050602083039250610f62565b6001836020036101000a0380198251168184511680821785525050505050509050019150509081526020016040518091039020819055506001600081548092919060010191905055505050505050565b828054600181600116156101000203166002900490600052602060002090601f016020900481019282601f1061101857805160ff1916838001178555611046565b82800160010185558215611046579182015b8281111561104557825182559160200191906001019061102a565b5b5090506110539190611057565b5090565b61107991905b8082111561107557600081600090555060010161105d565b5090565b905600a165627a7a723058200aa1f3712dd6815796e4aa7cda2f19ca14854d80c787b3ff055065fc9a47062c0029",
  "source": "pragma solidity ^0.4.19;\n\n/**\n * The Owned contract does this and that....\n */\ncontract Owned {\n\t\n\taddress owner;\n\n\tconstructor() public {\n\t\t\n\t\towner = msg.sender;\n\n\t}\n}\n\n/**\n * CardGame contractd\n */\ncontract CardGame is Owned {\n\t\n\tuint next_id = 1; // used to assign unique id to each card\n\n\tstruct Card{\n\n\t\tstring name; // name shown on the card\n\t\tuint power; // power\n\t\tuint health; // health\n\t\tstring meta; // a json format string - used to hold complex card definitions and js readable\n\t\tstring ipfs; // a string containing the ipfs hash of the image location\n\t}\n\n\n\t/**\n\t*  Define OwnerOnly modifier to restrict function calls to owner\n\t*/\n\tmodifier OwnerOnly() { \n\t\trequire (msg.sender == owner); \n\t\t_; \n\t}\n\n\n\t/**\n\t* \tDefine array to store all card definitions\n\t*/\n\tmapping(uint => Card) cards; // mapping from card id to card definition\n\tuint[] ids; // list of all card ids\n\tmapping(string => uint) names; // mapping from card name to id\n\n\n\t/**\n\t*\tCollection of cards struct\n\t*/ \n\tstruct Collection{\n\t\tmapping(uint => uint) collection; // for each card id, the number of cards held\n\t\tuint[] ids; // non unique list of card ids held. Will sort out uniqueness in javascript\n\t}\n\n\n\t/**\n\t* \tWho owns what\n\t*/\n\tmapping(address => Collection) holdings;\n\n\n\t/**\n\t*\tPrint cards and give them to the owner\n\t*/\n\tfunction PrintCards(string name,uint quantity) public OwnerOnly{\n\t\tuint id = names[name];\n\t\tholdings[owner].collection[id] += quantity;\n\t}\n\n\t/**\n\t* \tTransfer single card\n\t*/\n\tfunction TransferSingle(address to,uint id) public {\n\t\trequire(holdings[msg.sender].collection[id] > 1);\n\t\tholdings[to].collection[id] += 1;\n\t\tholdings[msg.sender].collection[id] -=1;\n\t}\n\n\n\t/**\n\t* \tGet the number of defined cards in existance\n\t*/\n\tfunction numberOfCards() public view returns (uint){\n\t\treturn ids.length;\n\t}\n\n\n\t/**\n\t* \tContract constructor\n\t*/\n\tconstructor() public {\n\n\t}\n\n\n\t/**\n\t*\tCreate card\n\t*/\n\tfunction CreateCard(\n\t\t\tstring _name,\n\t\t\tuint _power,\n\t\t\tuint _health,\n\t\t\tstring _meta,\n\t\t\tstring _ipfs) public OwnerOnly {\n\n\t\tcards[next_id] = Card(_name,_power,_health,_meta,_ipfs);\n\t\tids.push(next_id);\n\t\tnames[_name] = next_id;\n\t\tnext_id++;\n\n\t}\n\n\n\t/**\n\t* \tGet card by id\n\t*/\n\tfunction getCardById(uint id) public view returns (string,uint,uint,string,string) {\n\t\treturn (cards[id].name,cards[id].power,cards[id].health,cards[id].meta,cards[id].ipfs);\n\t}\n\n\t/**\n\t*\tGet card by name\n\t*/\n\tfunction getCardByName (string name) public view returns (string,uint,uint,string,string) {\n\t\tuint id = names[name];\n\t\treturn getCardById(id);\n\t}\n\t\n\n\t/**\n\t*\tGet names\n\t*/\n\tfunction getCardIds() public view returns (uint[]){\n\t\treturn ids;\n\t}\n\n\n\t/**\n\t*  Get holdings ids\n\t*/\n\tfunction getHoldings(address user) public view returns (uint[]){\n\t\treturn holdings[user].ids;\n\t}\n\n\t/**\n\t*\tGet holding of card id\n\t*/\n\tfunction getHoldingForId(address user,uint id) public view returns (uint){\n\t\treturn holdings[user].collection[id];\n\t}\n\n\n}\n\n",
  "sourcePath": "/home/andy/Desktop/king_of_ashes/contracts/Cards.sol",
  "compiler": {
    "name": "solc",
    "version": "0.4.23+commit.124ca40d.Emscripten.clang"
  },
  "schemaVersion": "2.0.0",
  "updatedAt": "2018-04-26T21:04:30.868Z"
}